{
  "contractName": "fileman",
  "abi": [
    {
      "inputs": [
        {
          "internalType": "string",
          "name": "_name",
          "type": "string"
        },
        {
          "internalType": "string",
          "name": "_role",
          "type": "string"
        }
      ],
      "name": "createUser",
      "outputs": [],
      "stateMutability": "nonpayable",
      "type": "function"
    },
    {
      "inputs": [
        {
          "internalType": "string",
          "name": "_name",
          "type": "string"
        }
      ],
      "name": "getUser",
      "outputs": [
        {
          "components": [
            {
              "internalType": "string",
              "name": "name",
              "type": "string"
            },
            {
              "internalType": "string",
              "name": "role",
              "type": "string"
            },
            {
              "internalType": "string[]",
              "name": "docs",
              "type": "string[]"
            }
          ],
          "internalType": "struct fileman.User",
          "name": "",
          "type": "tuple"
        }
      ],
      "stateMutability": "view",
      "type": "function",
      "constant": true
    },
    {
      "inputs": [
        {
          "internalType": "string",
          "name": "_hash",
          "type": "string"
        },
        {
          "internalType": "string",
          "name": "_id",
          "type": "string"
        },
        {
          "internalType": "string",
          "name": "_name",
          "type": "string"
        }
      ],
      "name": "createDoc",
      "outputs": [],
      "stateMutability": "nonpayable",
      "type": "function"
    },
    {
      "inputs": [
        {
          "internalType": "string",
          "name": "_hash",
          "type": "string"
        }
      ],
      "name": "getDoc",
      "outputs": [
        {
          "components": [
            {
              "internalType": "string",
              "name": "hash",
              "type": "string"
            },
            {
              "internalType": "string",
              "name": "status",
              "type": "string"
            },
            {
              "internalType": "string",
              "name": "name",
              "type": "string"
            },
            {
              "internalType": "string",
              "name": "verified_by",
              "type": "string"
            },
            {
              "internalType": "string",
              "name": "created_by",
              "type": "string"
            }
          ],
          "internalType": "struct fileman.Doc",
          "name": "",
          "type": "tuple"
        }
      ],
      "stateMutability": "view",
      "type": "function",
      "constant": true
    },
    {
      "inputs": [],
      "name": "getAllDocs",
      "outputs": [
        {
          "internalType": "string[]",
          "name": "",
          "type": "string[]"
        }
      ],
      "stateMutability": "view",
      "type": "function",
      "constant": true
    },
    {
      "inputs": [
        {
          "internalType": "string",
          "name": "_hash",
          "type": "string"
        },
        {
          "internalType": "int256",
          "name": "_status",
          "type": "int256"
        },
        {
          "internalType": "string",
          "name": "_vby",
          "type": "string"
        }
      ],
      "name": "verifyDoc",
      "outputs": [],
      "stateMutability": "nonpayable",
      "type": "function"
    },
    {
      "inputs": [
        {
          "internalType": "string",
          "name": "_hash",
          "type": "string"
        }
      ],
      "name": "getVerificationStatus",
      "outputs": [
        {
          "internalType": "string",
          "name": "",
          "type": "string"
        },
        {
          "components": [
            {
              "internalType": "string",
              "name": "name",
              "type": "string"
            },
            {
              "internalType": "string",
              "name": "role",
              "type": "string"
            },
            {
              "internalType": "string[]",
              "name": "docs",
              "type": "string[]"
            }
          ],
          "internalType": "struct fileman.User",
          "name": "",
          "type": "tuple"
        }
      ],
      "stateMutability": "view",
      "type": "function",
      "constant": true
    }
  ],
  "bytecode": "0x608060405234801561001057600080fd5b50611c52806100206000396000f3fe608060405234801561001057600080fd5b506004361061007d5760003560e01c80636f0e9b701161005b5780636f0e9b701461010157806387b162b51461011d578063a5bde23b14610139578063e7f578e1146101695761007d565b8063042b21671461008257806331feb671146100b35780633a8e1aa4146100e3575b600080fd5b61009c600480360381019061009791906110fe565b610185565b6040516100aa929190611330565b60405180910390f35b6100cd60048036038101906100c891906110fe565b610494565b6040516100da9190611367565b60405180910390f35b6100eb6106c9565b6040516100f8919061140f565b60405180910390f35b61011b60048036038101906101169190611467565b6107a2565b005b61013760048036038101906101329190611552565b610886565b005b610153600480360381019061014e91906110fe565b6109da565b6040516101609190611665565b60405180910390f35b610183600480360381019061017e9190611687565b610cec565b005b606061018f610e7a565b60006003846040516101a1919061176a565b908152602001604051809103902060010180546101bd906117b0565b80601f01602080910402602001604051908101604052809291908181526020018280546101e9906117b0565b80156102365780601f1061020b57610100808354040283529160200191610236565b820191906000526020600020905b81548152906001019060200180831161021957829003601f168201915b5050505050905060006001600386604051610251919061176a565b908152602001604051809103902060030160405161026f9190611879565b9081526020016040518091039020604051806060016040529081600082018054610298906117b0565b80601f01602080910402602001604051908101604052809291908181526020018280546102c4906117b0565b80156103115780601f106102e657610100808354040283529160200191610311565b820191906000526020600020905b8154815290600101906020018083116102f457829003601f168201915b5050505050815260200160018201805461032a906117b0565b80601f0160208091040260200160405190810160405280929190818152602001828054610356906117b0565b80156103a35780601f10610378576101008083540402835291602001916103a3565b820191906000526020600020905b81548152906001019060200180831161038657829003601f168201915b5050505050815260200160028201805480602002602001604051908101604052809291908181526020016000905b8282101561047d5783829060005260206000200180546103f0906117b0565b80601f016020809104026020016040519081016040528092919081815260200182805461041c906117b0565b80156104695780601f1061043e57610100808354040283529160200191610469565b820191906000526020600020905b81548152906001019060200180831161044c57829003601f168201915b5050505050815260200190600101906103d1565b505050508152505090508181935093505050915091565b61049c610e7a565b6001826040516104ac919061176a565b90815260200160405180910390206040518060600160405290816000820180546104d5906117b0565b80601f0160208091040260200160405190810160405280929190818152602001828054610501906117b0565b801561054e5780601f106105235761010080835404028352916020019161054e565b820191906000526020600020905b81548152906001019060200180831161053157829003601f168201915b50505050508152602001600182018054610567906117b0565b80601f0160208091040260200160405190810160405280929190818152602001828054610593906117b0565b80156105e05780601f106105b5576101008083540402835291602001916105e0565b820191906000526020600020905b8154815290600101906020018083116105c357829003601f168201915b5050505050815260200160028201805480602002602001604051908101604052809291908181526020016000905b828210156106ba57838290600052602060002001805461062d906117b0565b80601f0160208091040260200160405190810160405280929190818152602001828054610659906117b0565b80156106a65780601f1061067b576101008083540402835291602001916106a6565b820191906000526020600020905b81548152906001019060200180831161068957829003601f168201915b50505050508152602001906001019061060e565b50505050815250509050919050565b60606002805480602002602001604051908101604052809291908181526020016000905b8282101561079957838290600052602060002001805461070c906117b0565b80601f0160208091040260200160405190810160405280929190818152602001828054610738906117b0565b80156107855780601f1061075a57610100808354040283529160200191610785565b820191906000526020600020905b81548152906001019060200180831161076857829003601f168201915b5050505050815260200190600101906106ed565b50505050905090565b6060600083036107e9576040518060400160405280600881526020017f4465636c696e65640000000000000000000000000000000000000000000000008152509050610822565b6040518060400160405280600881526020017f416363657074656400000000000000000000000000000000000000000000000081525090505b80600385604051610833919061176a565b908152602001604051809103902060010190816108509190611a31565b5081600385604051610862919061176a565b9081526020016040518091039020600301908161087f9190611a31565b5050505050565b61088e610e7a565b82828080601f016020809104026020016040519081016040528093929190818152602001838380828437600081840152601f19601f82011690508083019250505050505050816020018190525084848080601f016020809104026020016040519081016040528093929190818152602001838380828437600081840152601f19601f820116905080830192505050505050508160000181905250806001868660405161093b929190611b28565b9081526020016040518091039020600082015181600001908161095e9190611a31565b5060208201518160010190816109749190611a31565b506040820151816002019080519060200190610991929190610e9b565b5090505060008585909180600181540180825580915050600190039060005260206000200160009091929091929091929091925091826109d2929190611b4c565b505050505050565b6109e2610ef4565b6003826040516109f2919061176a565b90815260200160405180910390206040518060a0016040529081600082018054610a1b906117b0565b80601f0160208091040260200160405190810160405280929190818152602001828054610a47906117b0565b8015610a945780601f10610a6957610100808354040283529160200191610a94565b820191906000526020600020905b815481529060010190602001808311610a7757829003601f168201915b50505050508152602001600182018054610aad906117b0565b80601f0160208091040260200160405190810160405280929190818152602001828054610ad9906117b0565b8015610b265780601f10610afb57610100808354040283529160200191610b26565b820191906000526020600020905b815481529060010190602001808311610b0957829003601f168201915b50505050508152602001600282018054610b3f906117b0565b80601f0160208091040260200160405190810160405280929190818152602001828054610b6b906117b0565b8015610bb85780601f10610b8d57610100808354040283529160200191610bb8565b820191906000526020600020905b815481529060010190602001808311610b9b57829003601f168201915b50505050508152602001600382018054610bd1906117b0565b80601f0160208091040260200160405190810160405280929190818152602001828054610bfd906117b0565b8015610c4a5780601f10610c1f57610100808354040283529160200191610c4a565b820191906000526020600020905b815481529060010190602001808311610c2d57829003601f168201915b50505050508152602001600482018054610c63906117b0565b80601f0160208091040260200160405190810160405280929190818152602001828054610c8f906117b0565b8015610cdc5780601f10610cb157610100808354040283529160200191610cdc565b820191906000526020600020905b815481529060010190602001808311610cbf57829003601f168201915b5050505050815250509050919050565b60006040518060a001604052808581526020016040518060400160405280601581526020017f50656e64696e673a204e6f742041737369676e65640000000000000000000000815250815260200183815260200160405180602001604052806000815250815260200184815250905080600385604051610d6c919061176a565b90815260200160405180910390206000820151816000019081610d8f9190611a31565b506020820151816001019081610da59190611a31565b506040820151816002019081610dbb9190611a31565b506060820151816003019081610dd19190611a31565b506080820151816004019081610de79190611a31565b50905050600183604051610dfb919061176a565b908152602001604051809103902060020184908060018154018082558091505060019003906000526020600020016000909190919091509081610e3e9190611a31565b50600284908060018154018082558091505060019003906000526020600020016000909190919091509081610e739190611a31565b5050505050565b60405180606001604052806060815260200160608152602001606081525090565b828054828255906000526020600020908101928215610ee3579160200282015b82811115610ee2578251829081610ed29190611a31565b5091602001919060010190610ebb565b5b509050610ef09190610f23565b5090565b6040518060a0016040528060608152602001606081526020016060815260200160608152602001606081525090565b5b80821115610f435760008181610f3a9190610f47565b50600101610f24565b5090565b508054610f53906117b0565b6000825580601f10610f655750610f84565b601f016020900490600052602060002090810190610f839190610f87565b5b50565b5b80821115610fa0576000816000905550600101610f88565b5090565b6000604051905090565b600080fd5b600080fd5b600080fd5b600080fd5b6000601f19601f8301169050919050565b7f4e487b7100000000000000000000000000000000000000000000000000000000600052604160045260246000fd5b61100b82610fc2565b810181811067ffffffffffffffff8211171561102a57611029610fd3565b5b80604052505050565b600061103d610fa4565b90506110498282611002565b919050565b600067ffffffffffffffff82111561106957611068610fd3565b5b61107282610fc2565b9050602081019050919050565b82818337600083830152505050565b60006110a161109c8461104e565b611033565b9050828152602081018484840111156110bd576110bc610fbd565b5b6110c884828561107f565b509392505050565b600082601f8301126110e5576110e4610fb8565b5b81356110f584826020860161108e565b91505092915050565b60006020828403121561111457611113610fae565b5b600082013567ffffffffffffffff81111561113257611131610fb3565b5b61113e848285016110d0565b91505092915050565b600081519050919050565b600082825260208201905092915050565b60005b83811015611181578082015181840152602081019050611166565b60008484015250505050565b600061119882611147565b6111a28185611152565b93506111b2818560208601611163565b6111bb81610fc2565b840191505092915050565b600082825260208201905092915050565b60006111e282611147565b6111ec81856111c6565b93506111fc818560208601611163565b61120581610fc2565b840191505092915050565b600081519050919050565b600082825260208201905092915050565b6000819050602082019050919050565b600061124883836111d7565b905092915050565b6000602082019050919050565b600061126882611210565b611272818561121b565b9350836020820285016112848561122c565b8060005b858110156112c057848403895281516112a1858261123c565b94506112ac83611250565b925060208a01995050600181019050611288565b50829750879550505050505092915050565b600060608301600083015184820360008601526112ef82826111d7565b9150506020830151848203602086015261130982826111d7565b91505060408301518482036040860152611323828261125d565b9150508091505092915050565b6000604082019050818103600083015261134a818561118d565b9050818103602083015261135e81846112d2565b90509392505050565b6000602082019050818103600083015261138181846112d2565b905092915050565b600082825260208201905092915050565b60006113a582611210565b6113af8185611389565b9350836020820285016113c18561122c565b8060005b858110156113fd57848403895281516113de858261123c565b94506113e983611250565b925060208a019950506001810190506113c5565b50829750879550505050505092915050565b60006020820190508181036000830152611429818461139a565b905092915050565b6000819050919050565b61144481611431565b811461144f57600080fd5b50565b6000813590506114618161143b565b92915050565b6000806000606084860312156114805761147f610fae565b5b600084013567ffffffffffffffff81111561149e5761149d610fb3565b5b6114aa868287016110d0565b93505060206114bb86828701611452565b925050604084013567ffffffffffffffff8111156114dc576114db610fb3565b5b6114e8868287016110d0565b9150509250925092565b600080fd5b600080fd5b60008083601f84011261151257611511610fb8565b5b8235905067ffffffffffffffff81111561152f5761152e6114f2565b5b60208301915083600182028301111561154b5761154a6114f7565b5b9250929050565b6000806000806040858703121561156c5761156b610fae565b5b600085013567ffffffffffffffff81111561158a57611589610fb3565b5b611596878288016114fc565b9450945050602085013567ffffffffffffffff8111156115b9576115b8610fb3565b5b6115c5878288016114fc565b925092505092959194509250565b600060a08301600083015184820360008601526115f082826111d7565b9150506020830151848203602086015261160a82826111d7565b9150506040830151848203604086015261162482826111d7565b9150506060830151848203606086015261163e82826111d7565b9150506080830151848203608086015261165882826111d7565b9150508091505092915050565b6000602082019050818103600083015261167f81846115d3565b905092915050565b6000806000606084860312156116a05761169f610fae565b5b600084013567ffffffffffffffff8111156116be576116bd610fb3565b5b6116ca868287016110d0565b935050602084013567ffffffffffffffff8111156116eb576116ea610fb3565b5b6116f7868287016110d0565b925050604084013567ffffffffffffffff81111561171857611717610fb3565b5b611724868287016110d0565b9150509250925092565b600081905092915050565b600061174482611147565b61174e818561172e565b935061175e818560208601611163565b80840191505092915050565b60006117768284611739565b915081905092915050565b7f4e487b7100000000000000000000000000000000000000000000000000000000600052602260045260246000fd5b600060028204905060018216806117c857607f821691505b6020821081036117db576117da611781565b5b50919050565b60008190508160005260206000209050919050565b60008154611803816117b0565b61180d818661172e565b94506001821660008114611828576001811461183d57611870565b60ff1983168652811515820286019350611870565b611846856117e1565b60005b8381101561186857815481890152600182019150602081019050611849565b838801955050505b50505092915050565b600061188582846117f6565b915081905092915050565b60006020601f8301049050919050565b600082821b905092915050565b6000600883026118dd7fffffffffffffffffffffffffffffffffffffffffffffffffffffffffffffffff826118a0565b6118e786836118a0565b95508019841693508086168417925050509392505050565b6000819050919050565b6000819050919050565b600061192e611929611924846118ff565b611909565b6118ff565b9050919050565b6000819050919050565b61194883611913565b61195c61195482611935565b8484546118ad565b825550505050565b600090565b611971611964565b61197c81848461193f565b505050565b5b818110156119a057611995600082611969565b600181019050611982565b5050565b601f8211156119e5576119b6816117e1565b6119bf84611890565b810160208510156119ce578190505b6119e26119da85611890565b830182611981565b50505b505050565b600082821c905092915050565b6000611a08600019846008026119ea565b1980831691505092915050565b6000611a2183836119f7565b9150826002028217905092915050565b611a3a82611147565b67ffffffffffffffff811115611a5357611a52610fd3565b5b611a5d82546117b0565b611a688282856119a4565b600060209050601f831160018114611a9b5760008415611a89578287015190505b611a938582611a15565b865550611afb565b601f198416611aa9866117e1565b60005b82811015611ad157848901518255600182019150602085019450602081019050611aac565b86831015611aee5784890151611aea601f8916826119f7565b8355505b6001600288020188555050505b505050505050565b6000611b0f838561172e565b9350611b1c83858461107f565b82840190509392505050565b6000611b35828486611b03565b91508190509392505050565b600082905092915050565b611b568383611b41565b67ffffffffffffffff811115611b6f57611b6e610fd3565b5b611b7982546117b0565b611b848282856119a4565b6000601f831160018114611bb35760008415611ba1578287013590505b611bab8582611a15565b865550611c13565b601f198416611bc1866117e1565b60005b82811015611be957848901358255600182019150602085019450602081019050611bc4565b86831015611c065784890135611c02601f8916826119f7565b8355505b6001600288020188555050505b5050505050505056fea2646970667358221220d8ec73485156bdeca3e74ea7ba2bb0f23edc08ab44c5018eeff5dd979da613e464736f6c63430008110033",
  "immutableReferences": {},
  "source": "//SPDX-License-Identifier: MIT\npragma solidity ^0.8.8; \ncontract fileman{\n\n//-------------MODELS-------------------                                  \n    struct User{\n        string name;\n        string role;\n        string[] docs;\n    }\n    struct Doc{\n        string hash;\n        string status;\n        string name;\n   \n        string verified_by;\n        string created_by;\n    }\n    \n//----------------Data Structures----------\n//-------------Users\n    // User[]  allUsers;\n    string[]  allUsersId;\n    mapping(string => User)  users;\n    //---------Docs\n    // Doc[] allDocs;\n    string[] allDocsHash;\n    mapping(string => Doc)  docs;\n\n//-----------------Functions---------------\n//-------------Users\n    function createUser(string calldata _name,  string calldata _role) public {\n        User memory newUser ;\n        newUser.role = _role;\n        newUser.name = _name;\n        users[_name] = newUser;\n        allUsersId.push(_name);\n        // allUsers.push(newUser);\n    }\n\n    //getUser\n    function getUser(string memory _name) public view returns (User memory ){\n       return users[_name]; \n    }\n    \n//------------Docs\n    function createDoc(string memory  _hash, string memory  _id, string memory _name) public {\n        Doc memory newDoc = Doc({hash: _hash, status: \"Pending: Not Assigned\", verified_by: '', created_by: _id,name:_name});\n        docs[_hash] = newDoc;\n        users[_id].docs.push(_hash);\n        allDocsHash.push(_hash);\n        // id_keys.push(_id);\n    }\n    function getDoc(string memory _hash) view public returns (Doc memory){\n        return docs[_hash];\n    }\n    function getAllDocs() view public returns (string[] memory){\n        return(allDocsHash);\n    }\n//------------Verification\n   \n    function verifyDoc(string memory _hash, int _status, string memory  _vby) public{\n        string memory s;\n        if(_status == 0){\n            s = \"Declined\";\n        }\n        else{\n            s = \"Accepted\";\n        }\n        docs[_hash].status = s;\n        docs[_hash].verified_by = _vby;\n    }\n    function getVerificationStatus(string memory _hash) view public returns(string memory, User memory){\n        string memory _status = docs[_hash].status;\n        User memory _verfiee = users[docs[_hash].verified_by];\n        return(_status, _verfiee);\n    }\n\n\n\n}",
  "sourcePath": "E:\\Code\\lnmhacks\\contracts\\FileName.sol",
  "compiler": {
    "name": "solc",
    "version": "0.8.17+commit.8df45f5f.Emscripten.clang"
  },
  "schemaVersion": "3.4.11",
  "updatedAt": "2023-01-28T22:16:08.877Z",
  "networkType": "ethereum",
  "devdoc": {
    "kind": "dev",
    "methods": {},
    "version": 1
  },
  "userdoc": {
    "kind": "user",
    "methods": {},
    "version": 1
  }
}